{"abi":[{"type":"constructor","inputs":[{"name":"_userSlotFactory","type":"address","internalType":"address"}],"stateMutability":"nonpayable"},{"type":"function","name":"emitCompleteLoan","inputs":[{"name":"successfull","type":"bool","internalType":"bool"},{"name":"amountWithdraw","type":"uint256","internalType":"uint256"}],"outputs":[],"stateMutability":"nonpayable"},{"type":"function","name":"emitNewRequestLoan","inputs":[{"name":"tokenContract","type":"address","internalType":"address"},{"name":"tokenId","type":"uint256","internalType":"uint256"},{"name":"tokenRequest","type":"address","internalType":"address"},{"name":"amountRequest","type":"uint256","internalType":"uint256"},{"name":"tokenToBorrow","type":"address","internalType":"address"},{"name":"rewards","type":"uint256","internalType":"uint256"},{"name":"loanDuration","type":"uint256","internalType":"uint256"}],"outputs":[],"stateMutability":"nonpayable"},{"type":"function","name":"emitSuppliedLoan","inputs":[{"name":"supplier","type":"address","internalType":"address"},{"name":"chainSelector","type":"uint64","internalType":"uint64"}],"outputs":[],"stateMutability":"nonpayable"},{"type":"function","name":"emitUserSlotCreated","inputs":[{"name":"owner","type":"address","internalType":"address"},{"name":"slot","type":"address","internalType":"address"}],"outputs":[],"stateMutability":"nonpayable"},{"type":"function","name":"userSlotFactory","inputs":[],"outputs":[{"name":"","type":"address","internalType":"contract IUserSlotFactory"}],"stateMutability":"view"},{"type":"event","name":"CompleteLoan","inputs":[{"name":"slot","type":"address","indexed":true,"internalType":"address"},{"name":"successfull","type":"bool","indexed":false,"internalType":"bool"},{"name":"amountWithdraw","type":"uint256","indexed":false,"internalType":"uint256"}],"anonymous":false},{"type":"event","name":"NewRequestLoan","inputs":[{"name":"slot","type":"address","indexed":true,"internalType":"address"},{"name":"tokenContract","type":"address","indexed":false,"internalType":"address"},{"name":"tokenId","type":"uint256","indexed":false,"internalType":"uint256"},{"name":"tokenRequest","type":"address","indexed":false,"internalType":"address"},{"name":"amountRequest","type":"uint256","indexed":false,"internalType":"uint256"},{"name":"tokenToBorrow","type":"address","indexed":false,"internalType":"address"},{"name":"rewards","type":"uint256","indexed":false,"internalType":"uint256"},{"name":"loanDuration","type":"uint256","indexed":false,"internalType":"uint256"}],"anonymous":false},{"type":"event","name":"SlotUserCreated","inputs":[{"name":"owner","type":"address","indexed":true,"internalType":"address"},{"name":"slot","type":"address","indexed":true,"internalType":"address"}],"anonymous":false},{"type":"event","name":"SuppliedLoan","inputs":[{"name":"slot","type":"address","indexed":true,"internalType":"address"},{"name":"supplier","type":"address","indexed":false,"internalType":"address"},{"name":"chainSelector","type":"uint64","indexed":false,"internalType":"uint64"}],"anonymous":false},{"type":"error","name":"NotSlotFactory","inputs":[{"name":"sender","type":"address","internalType":"address"}]},{"type":"error","name":"SlotNotExists","inputs":[{"name":"slot","type":"address","internalType":"address"}]}],"bytecode":{"object":"0x60803461007457601f61051838819003918201601f19168301916001600160401b038311848410176100795780849260209460405283398101031261007457516001600160a01b0381169081900361007457600080546001600160a01b03191691909117905560405161048890816100908239f35b600080fd5b634e487b7160e01b600052604160045260246000fdfe608060408181526004908136101561001657600080fd5b600092833560e01c908163262c63191461036a575080635d3d0466146102825780637c5957f8146102565780639464af18146101425763f2c688e11461005b57600080fd5b3461013e578060031936011261013e5781359182151580930361013a5783548251631f96a2cb60e21b8152338382015290602090829060249082906001600160a01b03165afa908115610130578591610101575b50156100eb5750807f4555f7e8ec44c287a9b439d8d9fb687283d3f2c0b9f4a2c8be04d3211485a05d915192835260243560208401523392a280f35b602491519063ce66407560e01b82523390820152fd5b610123915060203d602011610129575b61011b8183610402565b81019061043a565b386100af565b503d610111565b83513d87823e3d90fd5b8380fd5b8280fd5b50903461013e5760e036600319011261013e5761015d6103e7565b916044356001600160a01b038181169291839003610252576084359381851680950361024e576024602083895416855192838092631f96a2cb60e21b825233878301525afa908115610244578891610225575b501561020e575081519416845260243560208501528301526064356060830152608082015260a43560a082015260c43560c08201527f74ab785bdfcf402dd499e06c4751b60bfeb477c8e224deae339b0623a518ba9760e03392a280f35b60249083519063ce66407560e01b82523390820152fd5b61023e915060203d6020116101295761011b8183610402565b386101b0565b84513d8a823e3d90fd5b8680fd5b8580fd5b83823461027e578160031936011261027e57905490516001600160a01b039091168152602090f35b5080fd5b503461013e578060031936011261013e5761029b6103e7565b916024359067ffffffffffffffff82168092036103665784548351631f96a2cb60e21b815233818401526001600160a01b0392916020908290602490829087165afa90811561035c57879161033d575b50156103265750825193168352602083015233917f13e18ebba4892eac1f79b23e38684d2bc1fb8ed9211c7be17ecf68fbe1a974539190a280f35b60249084519063ce66407560e01b82523390820152fd5b610356915060203d6020116101295761011b8183610402565b386102eb565b85513d89823e3d90fd5b8480fd5b929190503461013a5736600319011261013e576103856103e7565b6001600160a01b0360243581811694919390859003610252578386541633036103d2575050167fb7d897aaa80324848d74a0067004df50dbd84bbd51202c5a76ed574a61e4b1b98380a380f35b63217246b160e01b8252339082015260249150fd5b600435906001600160a01b03821682036103fd57565b600080fd5b90601f8019910116810190811067ffffffffffffffff82111761042457604052565b634e487b7160e01b600052604160045260246000fd5b908160209103126103fd575180151581036103fd579056fea264697066735822122041cf45185885da1a03489171470e772631a496e09b3f9d3597fb2a739f719c7d64736f6c63430008170033","linkReferences":{}},"methodIdentifiers":{"emitCompleteLoan(bool,uint256)":"f2c688e1","emitNewRequestLoan(address,uint256,address,uint256,address,uint256,uint256)":"9464af18","emitSuppliedLoan(address,uint64)":"5d3d0466","emitUserSlotCreated(address,address)":"262c6319","userSlotFactory()":"7c5957f8"},"id":43}